{
  "_format": "hh-sol-artifact-1",
  "contractName": "Events",
  "sourceName": "contracts/Events.sol",
  "abi": [
    {
      "inputs": [
        {
          "internalType": "string",
          "name": "_id",
          "type": "string"
        },
        {
          "internalType": "string",
          "name": "_name",
          "type": "string"
        }
      ],
      "name": "createEvent",
      "outputs": [],
      "stateMutability": "nonpayable",
      "type": "function"
    },
    {
      "inputs": [
        {
          "internalType": "uint256",
          "name": "",
          "type": "uint256"
        }
      ],
      "name": "events",
      "outputs": [
        {
          "internalType": "string",
          "name": "id",
          "type": "string"
        },
        {
          "internalType": "string",
          "name": "name",
          "type": "string"
        },
        {
          "internalType": "bool",
          "name": "exists",
          "type": "bool"
        }
      ],
      "stateMutability": "view",
      "type": "function"
    },
    {
      "inputs": [
        {
          "internalType": "string",
          "name": "",
          "type": "string"
        }
      ],
      "name": "eventsMap",
      "outputs": [
        {
          "internalType": "string",
          "name": "id",
          "type": "string"
        },
        {
          "internalType": "string",
          "name": "name",
          "type": "string"
        },
        {
          "internalType": "bool",
          "name": "exists",
          "type": "bool"
        }
      ],
      "stateMutability": "view",
      "type": "function"
    },
    {
      "inputs": [
        {
          "internalType": "string",
          "name": "_eventId",
          "type": "string"
        }
      ],
      "name": "findEventById",
      "outputs": [
        {
          "internalType": "string",
          "name": "id",
          "type": "string"
        },
        {
          "internalType": "string",
          "name": "name",
          "type": "string"
        },
        {
          "internalType": "bool",
          "name": "exists",
          "type": "bool"
        }
      ],
      "stateMutability": "view",
      "type": "function"
    }
  ],
  "bytecode": "0x608060405234801561001057600080fd5b50610d5b806100206000396000f3fe608060405234801561001057600080fd5b506004361061004c5760003560e01c80630b791430146100515780634376132f14610083578063e257a94c146100b5578063f538e175146100d1575b600080fd5b61006b60048036038101906100669190610a10565b610103565b60405161007a93929190610b22565b60405180910390f35b61009d60048036038101906100989190610963565b61025a565b6040516100ac93929190610b22565b60405180910390f35b6100cf60048036038101906100ca91906109a4565b6104d5565b005b6100eb60048036038101906100e69190610963565b610588565b6040516100fa93929190610b22565b60405180910390f35b6000818154811061011357600080fd5b906000526020600020906003020160009150905080600001805461013690610c3c565b80601f016020809104026020016040519081016040528092919081815260200182805461016290610c3c565b80156101af5780601f10610184576101008083540402835291602001916101af565b820191906000526020600020905b81548152906001019060200180831161019257829003601f168201915b5050505050908060010180546101c490610c3c565b80601f01602080910402602001604051908101604052809291908181526020018280546101f090610c3c565b801561023d5780601f106102125761010080835404028352916020019161023d565b820191906000526020600020905b81548152906001019060200180831161022057829003601f168201915b5050505050908060020160009054906101000a900460ff16905083565b606080600060018460405161026f9190610ab2565b908152602001604051809103902060020160009054906101000a900460ff1615610465576102d16040518060400160405280600681526020017f68657265203000000000000000000000000000000000000000000000000000008152506106e5565b6001846040516102e19190610ab2565b90815260200160405180910390206000016001856040516103029190610ab2565b90815260200160405180910390206001016001866040516103239190610ab2565b908152602001604051809103902060020160009054906101000a900460ff1682805461034e90610c3c565b80601f016020809104026020016040519081016040528092919081815260200182805461037a90610c3c565b80156103c75780601f1061039c576101008083540402835291602001916103c7565b820191906000526020600020905b8154815290600101906020018083116103aa57829003601f168201915b505050505092508180546103da90610c3c565b80601f016020809104026020016040519081016040528092919081815260200182805461040690610c3c565b80156104535780601f1061042857610100808354040283529160200191610453565b820191906000526020600020905b81548152906001019060200180831161043657829003601f168201915b505050505091509250925092506104ce565b6104a36040518060400160405280600681526020017f68657265203100000000000000000000000000000000000000000000000000008152506106e5565b6000604051806020016040528060008152509060405180602001604052806000815250909250925092505b9193909250565b6104df828261077e565b806001836040516104f09190610ab2565b90815260200160405180910390206001019080519060200190610514929190610843565b50816001836040516105269190610ab2565b9081526020016040518091039020600001908051906020019061054a929190610843565b506001808360405161055c9190610ab2565b908152602001604051809103902060020160006101000a81548160ff0219169083151502179055505050565b6001818051602081018201805184825260208301602085012081835280955050505050506000915090508060000180546105c190610c3c565b80601f01602080910402602001604051908101604052809291908181526020018280546105ed90610c3c565b801561063a5780601f1061060f5761010080835404028352916020019161063a565b820191906000526020600020905b81548152906001019060200180831161061d57829003601f168201915b50505050509080600101805461064f90610c3c565b80601f016020809104026020016040519081016040528092919081815260200182805461067b90610c3c565b80156106c85780601f1061069d576101008083540402835291602001916106c8565b820191906000526020600020905b8154815290600101906020018083116106ab57829003601f168201915b5050505050908060020160009054906101000a900460ff16905083565b61077b816040516024016106f99190610ac9565b6040516020818303038152906040527f41304fac000000000000000000000000000000000000000000000000000000007bffffffffffffffffffffffffffffffffffffffffffffffffffffffff19166020820180517bffffffffffffffffffffffffffffffffffffffffffffffffffffffff838183161783525050505061081a565b50565b6108168282604051602401610794929190610aeb565b6040516020818303038152906040527f4b5c4277000000000000000000000000000000000000000000000000000000007bffffffffffffffffffffffffffffffffffffffffffffffffffffffff19166020820180517bffffffffffffffffffffffffffffffffffffffffffffffffffffffff838183161783525050505061081a565b5050565b60008151905060006a636f6e736f6c652e6c6f679050602083016000808483855afa5050505050565b82805461084f90610c3c565b90600052602060002090601f01602090048101928261087157600085556108b8565b82601f1061088a57805160ff19168380011785556108b8565b828001600101855582156108b8579182015b828111156108b757825182559160200191906001019061089c565b5b5090506108c591906108c9565b5090565b5b808211156108e25760008160009055506001016108ca565b5090565b60006108f96108f484610b8c565b610b67565b90508281526020810184848401111561091157600080fd5b61091c848285610bfa565b509392505050565b600082601f83011261093557600080fd5b81356109458482602086016108e6565b91505092915050565b60008135905061095d81610d0e565b92915050565b60006020828403121561097557600080fd5b600082013567ffffffffffffffff81111561098f57600080fd5b61099b84828501610924565b91505092915050565b600080604083850312156109b757600080fd5b600083013567ffffffffffffffff8111156109d157600080fd5b6109dd85828601610924565b925050602083013567ffffffffffffffff8111156109fa57600080fd5b610a0685828601610924565b9150509250929050565b600060208284031215610a2257600080fd5b6000610a308482850161094e565b91505092915050565b610a4281610be4565b82525050565b6000610a5382610bbd565b610a5d8185610bc8565b9350610a6d818560208601610c09565b610a7681610cfd565b840191505092915050565b6000610a8c82610bbd565b610a968185610bd9565b9350610aa6818560208601610c09565b80840191505092915050565b6000610abe8284610a81565b915081905092915050565b60006020820190508181036000830152610ae38184610a48565b905092915050565b60006040820190508181036000830152610b058185610a48565b90508181036020830152610b198184610a48565b90509392505050565b60006060820190508181036000830152610b3c8186610a48565b90508181036020830152610b508185610a48565b9050610b5f6040830184610a39565b949350505050565b6000610b71610b82565b9050610b7d8282610c6e565b919050565b6000604051905090565b600067ffffffffffffffff821115610ba757610ba6610cce565b5b610bb082610cfd565b9050602081019050919050565b600081519050919050565b600082825260208201905092915050565b600081905092915050565b60008115159050919050565b6000819050919050565b82818337600083830152505050565b60005b83811015610c27578082015181840152602081019050610c0c565b83811115610c36576000848401525b50505050565b60006002820490506001821680610c5457607f821691505b60208210811415610c6857610c67610c9f565b5b50919050565b610c7782610cfd565b810181811067ffffffffffffffff82111715610c9657610c95610cce565b5b80604052505050565b7f4e487b7100000000000000000000000000000000000000000000000000000000600052602260045260246000fd5b7f4e487b7100000000000000000000000000000000000000000000000000000000600052604160045260246000fd5b6000601f19601f8301169050919050565b610d1781610bf0565b8114610d2257600080fd5b5056fea264697066735822122094a7b3eb4823f33124df4b76ba62ee5fbad157b312ef6039c86cbd83873bd23464736f6c63430008030033",
  "linkReferences": {},
  "deployedLinkReferences": {}
}