{
  "_format": "hh-sol-artifact-1",
  "contractName": "Events",
  "sourceName": "contracts/Events.sol",
  "abi": [
    {
      "inputs": [
        {
          "internalType": "string",
          "name": "_ID",
          "type": "string"
        },
        {
          "internalType": "string",
          "name": "_name",
          "type": "string"
        }
      ],
      "name": "createEvent",
      "outputs": [],
      "stateMutability": "nonpayable",
      "type": "function"
    },
    {
      "inputs": [
        {
          "internalType": "uint256",
          "name": "",
          "type": "uint256"
        }
      ],
      "name": "events",
      "outputs": [
        {
          "internalType": "string",
          "name": "ID",
          "type": "string"
        },
        {
          "internalType": "string",
          "name": "Name",
          "type": "string"
        }
      ],
      "stateMutability": "view",
      "type": "function"
    },
    {
      "inputs": [
        {
          "internalType": "string",
          "name": "_eventID",
          "type": "string"
        }
      ],
      "name": "findEventByID",
      "outputs": [],
      "stateMutability": "nonpayable",
      "type": "function"
    }
  ],
  "bytecode": "0x608060405234801561001057600080fd5b5061059a806100206000396000f3fe608060405234801561001057600080fd5b50600436106100415760003560e01c80630b79143014610046578063c4403aaf14610077578063e257a94c14610093575b600080fd5b610060600480360381019061005b9190610324565b6100af565b60405161006e929190610386565b60405180910390f35b610091600480360381019061008c9190610277565b6101f3565b005b6100ad60048036038101906100a891906102b8565b6101f6565b005b600081815481106100bf57600080fd5b90600052602060002090600202016000915090508060000180546100e29061047b565b80601f016020809104026020016040519081016040528092919081815260200182805461010e9061047b565b801561015b5780601f106101305761010080835404028352916020019161015b565b820191906000526020600020905b81548152906001019060200180831161013e57829003601f168201915b5050505050908060010180546101709061047b565b80601f016020809104026020016040519081016040528092919081815260200182805461019c9061047b565b80156101e95780601f106101be576101008083540402835291602001916101e9565b820191906000526020600020905b8154815290600101906020018083116101cc57829003601f168201915b5050505050905082565b50565b5050565b600061020d610208846103e2565b6103bd565b90508281526020810184848401111561022557600080fd5b610230848285610439565b509392505050565b600082601f83011261024957600080fd5b81356102598482602086016101fa565b91505092915050565b6000813590506102718161054d565b92915050565b60006020828403121561028957600080fd5b600082013567ffffffffffffffff8111156102a357600080fd5b6102af84828501610238565b91505092915050565b600080604083850312156102cb57600080fd5b600083013567ffffffffffffffff8111156102e557600080fd5b6102f185828601610238565b925050602083013567ffffffffffffffff81111561030e57600080fd5b61031a85828601610238565b9150509250929050565b60006020828403121561033657600080fd5b600061034484828501610262565b91505092915050565b600061035882610413565b610362818561041e565b9350610372818560208601610448565b61037b8161053c565b840191505092915050565b600060408201905081810360008301526103a0818561034d565b905081810360208301526103b4818461034d565b90509392505050565b60006103c76103d8565b90506103d382826104ad565b919050565b6000604051905090565b600067ffffffffffffffff8211156103fd576103fc61050d565b5b6104068261053c565b9050602081019050919050565b600081519050919050565b600082825260208201905092915050565b6000819050919050565b82818337600083830152505050565b60005b8381101561046657808201518184015260208101905061044b565b83811115610475576000848401525b50505050565b6000600282049050600182168061049357607f821691505b602082108114156104a7576104a66104de565b5b50919050565b6104b68261053c565b810181811067ffffffffffffffff821117156104d5576104d461050d565b5b80604052505050565b7f4e487b7100000000000000000000000000000000000000000000000000000000600052602260045260246000fd5b7f4e487b7100000000000000000000000000000000000000000000000000000000600052604160045260246000fd5b6000601f19601f8301169050919050565b6105568161042f565b811461056157600080fd5b5056fea26469706673582212204f3dadbdb7577fd1c6c68a597f8a0b3ed3194f54eae27f131902c36810c20d8d64736f6c63430008030033",
  "linkReferences": {},
  "deployedLinkReferences": {}
}